{
	"Fibonacci.sol": {
		"Fibonacci": {
			"abi": [
				{
					"inputs": [
						{
							"internalType": "uint256",
							"name": "n",
							"type": "uint256"
						}
					],
					"name": "fib",
					"outputs": [
						{
							"internalType": "uint256",
							"name": "",
							"type": "uint256"
						}
					],
					"stateMutability": "pure",
					"type": "function"
				}
			],
			"devdoc": {
				"kind": "dev",
				"methods": {},
				"version": 1
			},
			"evm": {
				"assembly": "    /* \"Fibonacci.sol\":59:337  contract Fibonacci {... */\n  mstore(0x40, 0x80)\n  callvalue\n  dup1\n  iszero\n  tag_1\n  jumpi\n  0x00\n  dup1\n  revert\ntag_1:\n  pop\n  dataSize(sub_0)\n  dup1\n  dataOffset(sub_0)\n  0x00\n  codecopy\n  0x00\n  return\nstop\n\nsub_0: assembly {\n        /* \"Fibonacci.sol\":59:337  contract Fibonacci {... */\n      mstore(0x40, 0x80)\n      callvalue\n      dup1\n      iszero\n      tag_1\n      jumpi\n      0x00\n      dup1\n      revert\n    tag_1:\n      pop\n      jumpi(tag_2, lt(calldatasize, 0x04))\n      shr(0xe0, calldataload(0x00))\n      dup1\n      0xc6c2ea17\n      eq\n      tag_3\n      jumpi\n    tag_2:\n      0x00\n      dup1\n      revert\n        /* \"Fibonacci.sol\":82:335  function fib(uint n) pure external returns(uint) {... */\n    tag_3:\n      tag_4\n      0x04\n      dup1\n      calldatasize\n      sub\n      dup2\n      add\n      swap1\n      tag_5\n      swap2\n      swap1\n      tag_6\n      jump\t// in\n    tag_5:\n      tag_7\n      jump\t// in\n    tag_4:\n      mload(0x40)\n      tag_8\n      swap2\n      swap1\n      tag_9\n      jump\t// in\n    tag_8:\n      mload(0x40)\n      dup1\n      swap2\n      sub\n      swap1\n      return\n    tag_7:\n        /* \"Fibonacci.sol\":125:129  uint */\n      0x00\n        /* \"Fibonacci.sol\":145:146  0 */\n      dup1\n        /* \"Fibonacci.sol\":140:141  n */\n      dup3\n        /* \"Fibonacci.sol\":140:146  n == 0 */\n      eq\n        /* \"Fibonacci.sol\":137:171  if(n == 0) {... */\n      iszero\n      tag_11\n      jumpi\n        /* \"Fibonacci.sol\":163:164  0 */\n      0x00\n        /* \"Fibonacci.sol\":156:164  return 0 */\n      swap1\n      pop\n      jump(tag_10)\n        /* \"Fibonacci.sol\":137:171  if(n == 0) {... */\n    tag_11:\n        /* \"Fibonacci.sol\":176:185  uint fi_1 */\n      0x00\n        /* \"Fibonacci.sol\":188:189  1 */\n      0x01\n        /* \"Fibonacci.sol\":176:189  uint fi_1 = 1 */\n      swap1\n      pop\n        /* \"Fibonacci.sol\":195:204  uint fi_2 */\n      0x00\n        /* \"Fibonacci.sol\":207:208  1 */\n      0x01\n        /* \"Fibonacci.sol\":195:208  uint fi_2 = 1 */\n      swap1\n      pop\n        /* \"Fibonacci.sol\":218:224  uint i */\n      0x00\n        /* \"Fibonacci.sol\":227:228  2 */\n      0x02\n        /* \"Fibonacci.sol\":218:228  uint i = 2 */\n      swap1\n      pop\n        /* \"Fibonacci.sol\":214:314  for(uint i = 2; i < n; i++) {... */\n    tag_12:\n        /* \"Fibonacci.sol\":234:235  n */\n      dup5\n        /* \"Fibonacci.sol\":230:231  i */\n      dup2\n        /* \"Fibonacci.sol\":230:235  i < n */\n      lt\n        /* \"Fibonacci.sol\":214:314  for(uint i = 2; i < n; i++) {... */\n      iszero\n      tag_13\n      jumpi\n        /* \"Fibonacci.sol\":250:257  uint fi */\n      0x00\n        /* \"Fibonacci.sol\":267:271  fi_2 */\n      dup3\n        /* \"Fibonacci.sol\":260:264  fi_1 */\n      dup5\n        /* \"Fibonacci.sol\":260:271  fi_1 + fi_2 */\n      tag_15\n      swap2\n      swap1\n      tag_16\n      jump\t// in\n    tag_15:\n        /* \"Fibonacci.sol\":250:271  uint fi = fi_1 + fi_2 */\n      swap1\n      pop\n        /* \"Fibonacci.sol\":286:290  fi_1 */\n      dup4\n        /* \"Fibonacci.sol\":279:290  fi_2 = fi_1 */\n      swap3\n      pop\n        /* \"Fibonacci.sol\":305:307  fi */\n      dup1\n        /* \"Fibonacci.sol\":298:307  fi_1 = fi */\n      swap4\n      pop\n        /* \"Fibonacci.sol\":214:314  for(uint i = 2; i < n; i++) {... */\n      pop\n        /* \"Fibonacci.sol\":237:240  i++ */\n      dup1\n      dup1\n      tag_17\n      swap1\n      tag_18\n      jump\t// in\n    tag_17:\n      swap2\n      pop\n      pop\n        /* \"Fibonacci.sol\":214:314  for(uint i = 2; i < n; i++) {... */\n      jump(tag_12)\n    tag_13:\n      pop\n        /* \"Fibonacci.sol\":326:330  fi_1 */\n      dup2\n        /* \"Fibonacci.sol\":319:330  return fi_1 */\n      swap3\n      pop\n      pop\n      pop\n        /* \"Fibonacci.sol\":82:335  function fib(uint n) pure external returns(uint) {... */\n    tag_10:\n      swap2\n      swap1\n      pop\n      jump\t// out\n        /* \"#utility.yul\":7:146   */\n    tag_20:\n      0x00\n        /* \"#utility.yul\":91:97   */\n      dup2\n        /* \"#utility.yul\":78:98   */\n      calldataload\n        /* \"#utility.yul\":69:98   */\n      swap1\n      pop\n        /* \"#utility.yul\":107:140   */\n      tag_22\n        /* \"#utility.yul\":134:139   */\n      dup2\n        /* \"#utility.yul\":107:140   */\n      tag_23\n      jump\t// in\n    tag_22:\n        /* \"#utility.yul\":59:146   */\n      swap3\n      swap2\n      pop\n      pop\n      jump\t// out\n        /* \"#utility.yul\":152:414   */\n    tag_6:\n      0x00\n        /* \"#utility.yul\":260:262   */\n      0x20\n        /* \"#utility.yul\":248:257   */\n      dup3\n        /* \"#utility.yul\":239:246   */\n      dup5\n        /* \"#utility.yul\":235:258   */\n      sub\n        /* \"#utility.yul\":231:263   */\n      slt\n        /* \"#utility.yul\":228:230   */\n      iszero\n      tag_25\n      jumpi\n        /* \"#utility.yul\":276:277   */\n      0x00\n        /* \"#utility.yul\":273:274   */\n      dup1\n        /* \"#utility.yul\":266:278   */\n      revert\n        /* \"#utility.yul\":228:230   */\n    tag_25:\n        /* \"#utility.yul\":319:320   */\n      0x00\n        /* \"#utility.yul\":344:397   */\n      tag_26\n        /* \"#utility.yul\":389:396   */\n      dup5\n        /* \"#utility.yul\":380:386   */\n      dup3\n        /* \"#utility.yul\":369:378   */\n      dup6\n        /* \"#utility.yul\":365:387   */\n      add\n        /* \"#utility.yul\":344:397   */\n      tag_20\n      jump\t// in\n    tag_26:\n        /* \"#utility.yul\":334:397   */\n      swap2\n      pop\n        /* \"#utility.yul\":290:407   */\n      pop\n        /* \"#utility.yul\":218:414   */\n      swap3\n      swap2\n      pop\n      pop\n      jump\t// out\n        /* \"#utility.yul\":420:538   */\n    tag_27:\n        /* \"#utility.yul\":507:531   */\n      tag_29\n        /* \"#utility.yul\":525:530   */\n      dup2\n        /* \"#utility.yul\":507:531   */\n      tag_30\n      jump\t// in\n    tag_29:\n        /* \"#utility.yul\":502:505   */\n      dup3\n        /* \"#utility.yul\":495:532   */\n      mstore\n        /* \"#utility.yul\":485:538   */\n      pop\n      pop\n      jump\t// out\n        /* \"#utility.yul\":544:766   */\n    tag_9:\n      0x00\n        /* \"#utility.yul\":675:677   */\n      0x20\n        /* \"#utility.yul\":664:673   */\n      dup3\n        /* \"#utility.yul\":660:678   */\n      add\n        /* \"#utility.yul\":652:678   */\n      swap1\n      pop\n        /* \"#utility.yul\":688:759   */\n      tag_32\n        /* \"#utility.yul\":756:757   */\n      0x00\n        /* \"#utility.yul\":745:754   */\n      dup4\n        /* \"#utility.yul\":741:758   */\n      add\n        /* \"#utility.yul\":732:738   */\n      dup5\n        /* \"#utility.yul\":688:759   */\n      tag_27\n      jump\t// in\n    tag_32:\n        /* \"#utility.yul\":642:766   */\n      swap3\n      swap2\n      pop\n      pop\n      jump\t// out\n        /* \"#utility.yul\":772:1077   */\n    tag_16:\n      0x00\n        /* \"#utility.yul\":831:851   */\n      tag_34\n        /* \"#utility.yul\":849:850   */\n      dup3\n        /* \"#utility.yul\":831:851   */\n      tag_30\n      jump\t// in\n    tag_34:\n        /* \"#utility.yul\":826:851   */\n      swap2\n      pop\n        /* \"#utility.yul\":865:885   */\n      tag_35\n        /* \"#utility.yul\":883:884   */\n      dup4\n        /* \"#utility.yul\":865:885   */\n      tag_30\n      jump\t// in\n    tag_35:\n        /* \"#utility.yul\":860:885   */\n      swap3\n      pop\n        /* \"#utility.yul\":1019:1020   */\n      dup3\n        /* \"#utility.yul\":951:1017   */\n      0xffffffffffffffffffffffffffffffffffffffffffffffffffffffffffffffff\n        /* \"#utility.yul\":947:1021   */\n      sub\n        /* \"#utility.yul\":944:945   */\n      dup3\n        /* \"#utility.yul\":941:1022   */\n      gt\n        /* \"#utility.yul\":938:940   */\n      iszero\n      tag_36\n      jumpi\n        /* \"#utility.yul\":1025:1043   */\n      tag_37\n      tag_38\n      jump\t// in\n    tag_37:\n        /* \"#utility.yul\":938:940   */\n    tag_36:\n        /* \"#utility.yul\":1069:1070   */\n      dup3\n        /* \"#utility.yul\":1066:1067   */\n      dup3\n        /* \"#utility.yul\":1062:1071   */\n      add\n        /* \"#utility.yul\":1055:1071   */\n      swap1\n      pop\n        /* \"#utility.yul\":816:1077   */\n      swap3\n      swap2\n      pop\n      pop\n      jump\t// out\n        /* \"#utility.yul\":1083:1160   */\n    tag_30:\n      0x00\n        /* \"#utility.yul\":1149:1154   */\n      dup2\n        /* \"#utility.yul\":1138:1154   */\n      swap1\n      pop\n        /* \"#utility.yul\":1128:1160   */\n      swap2\n      swap1\n      pop\n      jump\t// out\n        /* \"#utility.yul\":1166:1399   */\n    tag_18:\n      0x00\n        /* \"#utility.yul\":1228:1252   */\n      tag_41\n        /* \"#utility.yul\":1246:1251   */\n      dup3\n        /* \"#utility.yul\":1228:1252   */\n      tag_30\n      jump\t// in\n    tag_41:\n        /* \"#utility.yul\":1219:1252   */\n      swap2\n      pop\n        /* \"#utility.yul\":1274:1340   */\n      0xffffffffffffffffffffffffffffffffffffffffffffffffffffffffffffffff\n        /* \"#utility.yul\":1267:1272   */\n      dup3\n        /* \"#utility.yul\":1264:1341   */\n      eq\n        /* \"#utility.yul\":1261:1263   */\n      iszero\n      tag_42\n      jumpi\n        /* \"#utility.yul\":1344:1362   */\n      tag_43\n      tag_38\n      jump\t// in\n    tag_43:\n        /* \"#utility.yul\":1261:1263   */\n    tag_42:\n        /* \"#utility.yul\":1391:1392   */\n      0x01\n        /* \"#utility.yul\":1384:1389   */\n      dup3\n        /* \"#utility.yul\":1380:1393   */\n      add\n        /* \"#utility.yul\":1373:1393   */\n      swap1\n      pop\n        /* \"#utility.yul\":1209:1399   */\n      swap2\n      swap1\n      pop\n      jump\t// out\n        /* \"#utility.yul\":1405:1585   */\n    tag_38:\n        /* \"#utility.yul\":1453:1530   */\n      0x4e487b7100000000000000000000000000000000000000000000000000000000\n        /* \"#utility.yul\":1450:1451   */\n      0x00\n        /* \"#utility.yul\":1443:1531   */\n      mstore\n        /* \"#utility.yul\":1550:1554   */\n      0x11\n        /* \"#utility.yul\":1547:1548   */\n      0x04\n        /* \"#utility.yul\":1540:1555   */\n      mstore\n        /* \"#utility.yul\":1574:1578   */\n      0x24\n        /* \"#utility.yul\":1571:1572   */\n      0x00\n        /* \"#utility.yul\":1564:1579   */\n      revert\n        /* \"#utility.yul\":1591:1713   */\n    tag_23:\n        /* \"#utility.yul\":1664:1688   */\n      tag_46\n        /* \"#utility.yul\":1682:1687   */\n      dup2\n        /* \"#utility.yul\":1664:1688   */\n      tag_30\n      jump\t// in\n    tag_46:\n        /* \"#utility.yul\":1657:1662   */\n      dup2\n        /* \"#utility.yul\":1654:1689   */\n      eq\n        /* \"#utility.yul\":1644:1646   */\n      tag_47\n      jumpi\n        /* \"#utility.yul\":1703:1704   */\n      0x00\n        /* \"#utility.yul\":1700:1701   */\n      dup1\n        /* \"#utility.yul\":1693:1705   */\n      revert\n        /* \"#utility.yul\":1644:1646   */\n    tag_47:\n        /* \"#utility.yul\":1634:1713   */\n      pop\n      jump\t// out\n\n    auxdata: 0xa2646970667358221220329792c161504a59fd0f9335a52d54600c90658e847bda7ddb553304c4e9287e64736f6c63430008000033\n}\n",
				"bytecode": {
					"linkReferences": {},
					"object": "608060405234801561001057600080fd5b50610251806100206000396000f3fe608060405234801561001057600080fd5b506004361061002b5760003560e01c8063c6c2ea1714610030575b600080fd5b61004a600480360381019061004591906100d9565b610060565b6040516100579190610111565b60405180910390f35b60008082141561007357600090506100bf565b6000600190506000600190506000600290505b848110156100b8576000828461009c919061012c565b90508392508093505080806100b09061018c565b915050610086565b5081925050505b919050565b6000813590506100d381610204565b92915050565b6000602082840312156100eb57600080fd5b60006100f9848285016100c4565b91505092915050565b61010b81610182565b82525050565b60006020820190506101266000830184610102565b92915050565b600061013782610182565b915061014283610182565b9250827fffffffffffffffffffffffffffffffffffffffffffffffffffffffffffffffff03821115610177576101766101d5565b5b828201905092915050565b6000819050919050565b600061019782610182565b91507fffffffffffffffffffffffffffffffffffffffffffffffffffffffffffffffff8214156101ca576101c96101d5565b5b600182019050919050565b7f4e487b7100000000000000000000000000000000000000000000000000000000600052601160045260246000fd5b61020d81610182565b811461021857600080fd5b5056fea2646970667358221220329792c161504a59fd0f9335a52d54600c90658e847bda7ddb553304c4e9287e64736f6c63430008000033",
					"opcodes": "PUSH1 0x80 PUSH1 0x40 MSTORE CALLVALUE DUP1 ISZERO PUSH2 0x10 JUMPI PUSH1 0x0 DUP1 REVERT JUMPDEST POP PUSH2 0x251 DUP1 PUSH2 0x20 PUSH1 0x0 CODECOPY PUSH1 0x0 RETURN INVALID PUSH1 0x80 PUSH1 0x40 MSTORE CALLVALUE DUP1 ISZERO PUSH2 0x10 JUMPI PUSH1 0x0 DUP1 REVERT JUMPDEST POP PUSH1 0x4 CALLDATASIZE LT PUSH2 0x2B JUMPI PUSH1 0x0 CALLDATALOAD PUSH1 0xE0 SHR DUP1 PUSH4 0xC6C2EA17 EQ PUSH2 0x30 JUMPI JUMPDEST PUSH1 0x0 DUP1 REVERT JUMPDEST PUSH2 0x4A PUSH1 0x4 DUP1 CALLDATASIZE SUB DUP2 ADD SWAP1 PUSH2 0x45 SWAP2 SWAP1 PUSH2 0xD9 JUMP JUMPDEST PUSH2 0x60 JUMP JUMPDEST PUSH1 0x40 MLOAD PUSH2 0x57 SWAP2 SWAP1 PUSH2 0x111 JUMP JUMPDEST PUSH1 0x40 MLOAD DUP1 SWAP2 SUB SWAP1 RETURN JUMPDEST PUSH1 0x0 DUP1 DUP3 EQ ISZERO PUSH2 0x73 JUMPI PUSH1 0x0 SWAP1 POP PUSH2 0xBF JUMP JUMPDEST PUSH1 0x0 PUSH1 0x1 SWAP1 POP PUSH1 0x0 PUSH1 0x1 SWAP1 POP PUSH1 0x0 PUSH1 0x2 SWAP1 POP JUMPDEST DUP5 DUP2 LT ISZERO PUSH2 0xB8 JUMPI PUSH1 0x0 DUP3 DUP5 PUSH2 0x9C SWAP2 SWAP1 PUSH2 0x12C JUMP JUMPDEST SWAP1 POP DUP4 SWAP3 POP DUP1 SWAP4 POP POP DUP1 DUP1 PUSH2 0xB0 SWAP1 PUSH2 0x18C JUMP JUMPDEST SWAP2 POP POP PUSH2 0x86 JUMP JUMPDEST POP DUP2 SWAP3 POP POP POP JUMPDEST SWAP2 SWAP1 POP JUMP JUMPDEST PUSH1 0x0 DUP2 CALLDATALOAD SWAP1 POP PUSH2 0xD3 DUP2 PUSH2 0x204 JUMP JUMPDEST SWAP3 SWAP2 POP POP JUMP JUMPDEST PUSH1 0x0 PUSH1 0x20 DUP3 DUP5 SUB SLT ISZERO PUSH2 0xEB JUMPI PUSH1 0x0 DUP1 REVERT JUMPDEST PUSH1 0x0 PUSH2 0xF9 DUP5 DUP3 DUP6 ADD PUSH2 0xC4 JUMP JUMPDEST SWAP2 POP POP SWAP3 SWAP2 POP POP JUMP JUMPDEST PUSH2 0x10B DUP2 PUSH2 0x182 JUMP JUMPDEST DUP3 MSTORE POP POP JUMP JUMPDEST PUSH1 0x0 PUSH1 0x20 DUP3 ADD SWAP1 POP PUSH2 0x126 PUSH1 0x0 DUP4 ADD DUP5 PUSH2 0x102 JUMP JUMPDEST SWAP3 SWAP2 POP POP JUMP JUMPDEST PUSH1 0x0 PUSH2 0x137 DUP3 PUSH2 0x182 JUMP JUMPDEST SWAP2 POP PUSH2 0x142 DUP4 PUSH2 0x182 JUMP JUMPDEST SWAP3 POP DUP3 PUSH32 0xFFFFFFFFFFFFFFFFFFFFFFFFFFFFFFFFFFFFFFFFFFFFFFFFFFFFFFFFFFFFFFFF SUB DUP3 GT ISZERO PUSH2 0x177 JUMPI PUSH2 0x176 PUSH2 0x1D5 JUMP JUMPDEST JUMPDEST DUP3 DUP3 ADD SWAP1 POP SWAP3 SWAP2 POP POP JUMP JUMPDEST PUSH1 0x0 DUP2 SWAP1 POP SWAP2 SWAP1 POP JUMP JUMPDEST PUSH1 0x0 PUSH2 0x197 DUP3 PUSH2 0x182 JUMP JUMPDEST SWAP2 POP PUSH32 0xFFFFFFFFFFFFFFFFFFFFFFFFFFFFFFFFFFFFFFFFFFFFFFFFFFFFFFFFFFFFFFFF DUP3 EQ ISZERO PUSH2 0x1CA JUMPI PUSH2 0x1C9 PUSH2 0x1D5 JUMP JUMPDEST JUMPDEST PUSH1 0x1 DUP3 ADD SWAP1 POP SWAP2 SWAP1 POP JUMP JUMPDEST PUSH32 0x4E487B7100000000000000000000000000000000000000000000000000000000 PUSH1 0x0 MSTORE PUSH1 0x11 PUSH1 0x4 MSTORE PUSH1 0x24 PUSH1 0x0 REVERT JUMPDEST PUSH2 0x20D DUP2 PUSH2 0x182 JUMP JUMPDEST DUP2 EQ PUSH2 0x218 JUMPI PUSH1 0x0 DUP1 REVERT JUMPDEST POP JUMP INVALID LOG2 PUSH5 0x6970667358 0x22 SLT KECCAK256 ORIGIN SWAP8 SWAP3 0xC1 PUSH2 0x504A MSIZE REVERT 0xF SWAP4 CALLDATALOAD 0xA5 0x2D SLOAD PUSH1 0xC SWAP1 PUSH6 0x8E847BDA7DDB SSTORE CALLER DIV 0xC4 0xE9 0x28 PUSH31 0x64736F6C634300080000330000000000000000000000000000000000000000 "
				},
				"gasEstimates": {
					"creation": {
						"codeDepositCost": "118600",
						"executionCost": "165",
						"totalCost": "118765"
					},
					"external": {
						"fib(uint256)": "infinite"
					}
				},
				"methodIdentifiers": {
					"fib(uint256)": "c6c2ea17"
				}
			},
			"storageLayout": {
				"storage": [],
				"types": null
			},
			"userdoc": {
				"kind": "user",
				"methods": {},
				"version": 1
			}
		}
	}
}